:107E0000112485E0809381008EE0DBD0579A86E0D4
:107E100020E33CEF91E0309385002093840096BBF3
:107E2000B09BFECF4F9AA8958150A9F784B714BE96
:107E300081FFDDD082E08093C00088E18093C100A3
:107E400086E08093C20080E18093C400CC24DD24CE
:107E500088248394B5E0AB2EA1E19A2EF3E0BF2EE7
:107E6000A2D0813461F49FD0082FB1D0023829F11B
:107E7000013811F484E001C083E08DD089C08234E0
:107E800011F484E103C0853419F485E0A8D080C0E2
:107E9000853579F488D0E82EFF2485D0082F10E0AE
:107EA000102F00270E291F29000F111F90D06801E5
:107EB0006FC0863521F484E092D080E0DECF843636
:107EC00009F040C070D06FD0082F6DD080E0C81688
:107ED00080E7D80618F4F601B7BEE895C0E0D1E017
:107EE00062D089930C17E1F7F0E0CF16F0E7DF06D8
:107EF00018F0F601B7BEE8956AD007B600FCFDCFD2
:107F0000A601A0E0B1E02C9130E011968C91119780
:107F100090E0982F8827822B932B1296FA010C0160
:107F200087BEE89511244E5F5F4FF1E0A038BF0790
:107F300051F7F601A7BEE89507B600FCFDCF97BE46
:107F4000E89526C08437B1F42ED02DD0F82E2BD052
:107F50003ED0F601EF2C8F010F5F1F4F84911BD095
:107F6000EA94F801C1F70894C11CD11CFA94CF0C13
:107F7000D11C0EC0853739F42AD08EE10CD085E9AA
:107F80000AD08FE07ACF813511F488E01AD01FD063
:107F900080E101D065CF982F8091C00085FFFCCF94
:107FA0009093C60008954F9A8091C00087FFFCCF40
:107FB0008091C00084FD01C0A8958091C6004F9AB1
:107FC0000895E0E6F0E098E1908380830895EBDF88
:107FD000803219F088E0F5DFFFCF84E1DCCF1F931A
:107FE000182FE1DF1150E9F7F2DF1F91089580E0CB
:087FF000E8DFEE27FF270994EA
:027FFE0000047D
:0400000300007E007B
:00000001FF
