:020000023000CC
:10E000000D94CBF20D94F4F20D94F4F20D94F4F21D
:10E010000D94F4F20D94F4F20D94F4F20D94F4F2E4
:10E020000D94F4F20D94F4F20D94F4F20D94F4F2D4
:10E030000D94F4F20D94F4F20D94F4F20D94F4F2C4
:10E040000D94F4F20D94F4F20D94F4F20D94F4F2B4
:10E050000D94F4F20D94F4F20D94F4F20D94F4F2A4
:10E060000D94F4F20D94F4F20D94F4F20D94F4F294
:10E070000D94F4F20D94F4F20D94F4F20D94F4F284
:10E080000D94F4F20D94F4F20D94F4F20D94F4F274
:10E090000D94F4F20D94F4F20D94F4F20D94F4F264
:10E0A0000D94F4F20D94F4F20D94F4F20D94F4F254
:10E0B0000D94F4F20D94F4F20D94F4F20D94F4F244
:10E0C0000D94F4F20D94F4F20D94F4F20D94F4F234
:10E0D0000D94F4F20D94F4F20D94F4F20D94F4F224
:10E0E0000D94F4F241546D6567613235363000525B
:10E0F00065656620416E67656C20506C75732043C2
:10E100006F6E74726F6C6C657220426F6F746C6F9F
:10E11000616465720052656566416E67656C3E00BC
:10E12000556E6B6E6F776E20436F6D6D616E640020
:10E13000436F6D70696C6564206F6E20203D200018
:10E14000435055205479706520202020203D200028
:10E150005F5F4156525F415243485F5F203D200060
:10E16000415652204C69624320566572203D200082
:10E170004743432056657273696F6E20203D20002F
:10E18000435055207369676E61747572653D200058
:10E190004C6F77206675736520202020203D20007D
:10E1A000486967682066757365202020203D20003F
:10E1B000457874206675736520202020203D20005E
:10E1C0004C6F636B2066757365202020203D200016
:10E1D000417567203139203230313100312E362EF1
:10E1E0003700342E332E3300562320202041444460
:10E1F000522020206F7020636F6465202020202033
:10E20000696E737472756374696F6E206164647291
:10E21000202020496E74657272757074006E6F20D4
:10E22000766563746F7200726A6D702020006A6D8B
:10E230007020005768617420706F72743A00506FDC
:10E240007274206E6F7420737570706F7274656471
:10E25000004D7573742062652061206C657474656F
:10E26000720020005772697474696E67204545001A
:10E2700052656164696E6720454500656570726F1F
:10E280006D206572726F7220636F756E743D005001
:10E290004F5254003F3D43505520737461747300D6
:10E2A000453D44756D7020454550524F4D00463DEB
:10E2B00044756D7020464C41534800483D48656C9C
:10E2C0007000513D517569742026206A756D70206B
:10E2D000746F20757365722070676D00523D4475D0
:10E2E0006D702052414D002A00524553455400495B
:10E2F0004E543000494E543100494E543200494E7C
:10E30000543300494E543400494E543500494E545C
:10E310003600494E5437005043494E543000504364
:10E32000494E5431005043494E5432005744540032
:10E3300054494D45523020434F4D50410054494DB2
:10E3400045523020434F4D50420054494D455230C4
:10E35000204F56460054494D4552312043415054B8
:10E360000054494D45523120434F4D5041005449CE
:10E370004D45523120434F4D50420054494D455276
:10E380003120434F4D50430054494D455231204FA9
:10E3900056460054494D45523220434F4D5041009E
:10E3A00054494D45523220434F4D50420054494D3F
:10E3B000455232204F56460054494D455233204372
:10E3C0004150540054494D45523320434F4D504124
:10E3D0000054494D45523320434F4D50420054495B
:10E3E0004D45523320434F4D50430054494D455203
:10E3F00033204F56460054494D4552342043415036
:10E40000540054494D45523420434F4D504100541F
:10E41000494D45523420434F4D50420054494D45DB
:10E42000523420434F4D50430054494D45523420FF
:10E430004F56460054494D455235204341505400F3
:10E4400054494D45523520434F4D50410054494D9C
:10E4500045523520434F4D50420054494D455235A9
:10E4600020434F4D50430054494D455235204F569F
:10E470004600555341525430205258005553415292
:10E480005430205544524500555341525430205485
:10E49000580055534152543120525800555341525F
:10E4A0005431205544524500555341525431205463
:10E4B000580055534152543220525800555341523E
:10E4C0005432205544524500555341525432205441
:10E4D000580055534152543320525800555341521D
:10E4E000543320554452450055534152543320541F
:10E4F0005800535049205354430041444300414E77
:10E50000414C4F4720434F4D500045452052454117
:10E510004459005457490053504D205245414459E5
:10E52000002A00E9E2EFE2F4E2F9E2FEE203E308A6
:10E53000E30DE312E317E31EE325E32CE393E3A0EB
:10E54000E3ADE355E361E36EE37BE388E330E33D72
:10E55000E34AE3F2E472E47CE488E4FEE4FAE40AE9
:10E56000E5B8E3C4E3D1E3DEE3EBE392E49CE4A8A3
:10E57000E413E517E5F6E302E40FE41CE429E434D0
:10E58000E440E44DE45AE467E4B2E4BCE4C8E4D215
:10E59000E4DCE4E8E40011241FBECFEFD1E2DEBFEB
:10E5A000CDBF01E00CBF12E0A0E0B2E0E0EEF4EF7E
:10E5B00003E00BBF02C007900D92A030B107D9F75E
:10E5C00012E0A0E0B2E001C01D92AC30B107E1F76B
:10E5D0000F9496F40D946EFA01E20EBF0FEF0DBF8B
:10E5E00011241FBE0D9496F40D9400F020E030E04D
:10E5F00040ED57E005C0FA013197F1F72F5F3F4F2B
:10E6000028173907C0F308959C01442737FD40952A
:10E61000542FDA01C901860F911DA11DB11DABBF99
:10E62000FC018791882369F08093C6008091C00027
:10E6300086FFFCCF8091C00080648093C0006F5F34
:10E64000E8CF08958DE08093C6008091C00086FFDA
:10E65000FCCF8091C00080648093C0008AE08093EA
:10E66000C6008091C00086FFFCCF8091C00080640E
:10E670008093C00008950F9404F30F9422F308953B
:10E68000FC019081992359F09093C6008091C000BD
:10E6900086FFFCCF8091C00080648093C0003196DB
:10E6A000992379F70895282F982F92959F70892F95
:10E6B000805D8A3308F0895F8093C6008091C00036
:10E6C00086FFFCCF8091C00080648093C000822FC1
:10E6D0008F70982F905D9A3308F0995F9093C600E1
:10E6E0008091C00086FFFCCF8091C0008064809341
:10E6F000C00008959C01FB01853691051CF4633030
:10E70000710594F0C90164E670E00F941DFA605D34
:10E710007F4F6093C6008091C00086FFFCCF809140
:10E72000C00080648093C0002B30310514F4329710
:10E73000B4F0C90164E670E00F941DFA6AE070E07D
:10E740000F941DFA605D7F4F6093C6008091C000FA
:10E7500086FFFCCF8091C00080648093C000C90117
:10E760006AE070E00F941DFAC0968093C600809115
:10E77000C00086FFFCCF8091C00080648093C00001
:10E780000895E0E6F0E098E19083808308952F9269
:10E790003F924F925F926F927F928F929F92AF9231
:10E7A000BF92CF92DF92EF92FF920F931F93DF936E
:10E7B000CF93CDB7DEB762970FB6F894DEBF0FBE2A
:10E7C000CDBF382E622ECA01DB015C016D017724BA
:10E7D00020E2222E2E010894411C511C8BC081E0A6
:10E7E000A81680E0B80681E0C80680E0D80628F0C8
:10E7F000C601AA27BB270F9453F3BB27AD2D9C2D31
:10E800008B2D0F9453F38A2D0F9453F32092C6004F
:10E810008091C00086FFFCCF8091C000806480930F
:10E82000C0009DE29093C6008091C00086FFFCCF9F
:10E830008091C00080648093C0002092C6008091C7
:10E84000C00086FFFCCF8091C00080648093C00030
:10E8500019828601750188249924A1E03A1651F0A5
:10E860003A1620F0B2E03B1661F409C00BBFF70185
:10E87000779007C0C7010F9466FA782E02C0F7019F
:10E880007080872D0F9453F32092C6008091C000B2
:10E8900086FFFCCF8091C00080648093C000872DEC
:10E8A0008052F401EF70F0708F3520F4E40DF51D07
:10E8B000708204C0E40DF51D8EE280830894E11C93
:10E8C000F11C011D111D0894811C911C90E18916F9
:10E8D000910409F0C2CF80E190E0A0E0B0E0A80E82
:10E8E000B91ECA1EDB1E198AC2010F9440F30F9491
:10E8F00022F36A94662009F072CF62960FB6F894FC
:10E90000DEBF0FBECDBFCF91DF911F910F91FF9062
:10E91000EF90DF90CF90BF90AF909F908F907F90BF
:10E920006F905F904F903F902F9008952F923F925D
:10E930004F925F926F927F928F929F92AF92BF920F
:10E94000CF92DF92EF92FF920F931F93DF93CF93BB
:10E95000CDB7DEB7CB52D1400FB6F894DEBF0FBEB5
:10E96000CDBF14BE98E1909360001092600080913A
:10E970000101806180930101809102018061809397
:10E9800002018091C00082608093C0008091C80025
:10E9900082608093C80080E18093C4009093C1009E
:10E9A0000000EE24FF24870154E0A52EB12C40E1A5
:10E9B000942ECC24DD2426C0C5010197F1F70894DC
:10E9C000E11CF11C011D111D21E2E2162EE4F206EC
:10E9D00020E0020720E0120718F031E0C32ED12C0E
:10E9E000C801B70120EA3FE040E050E00F9430FA60
:10E9F000611571058105910529F480910201892530
:10EA0000809302018091C00087FD03C0C114D1042E
:10EA100099F2A6014F5F5F4FC25EDE4F5983488374
:10EA2000CE51D140C25EDE4F68817981CE51D14056
:10EA30006130710509F0DCC4CE5DDE4F19821882A9
:10EA4000C252D14060E0CF5DDE4F1882C152D1404A
:10EA50002224332488249924540144245524320147
:10EA6000ABBEF40187919691C65DDE4F9983888392
:10EA7000CA52D140B9C4C25EDE4FE881F981CE519D
:10EA8000D140319709F52091C600C25EDE4F198250
:10EA90001882CE51D14022C02F5F3F4F4F4F5F4F62
:10EAA0002130F2E13F07FAE74F07F0E05F0780F01F
:10EAB000C65DDE4F28813981CA52D1402F5F3F4F5A
:10EAC00019F0EE27FF27099420E030E040E050E005
:10EAD0008091C00087FFE0CF2091C600213209F06D
:10EAE000C2C10894211C311C53E02516310409F0E1
:10EAF000BCC100E010E018C061E26093C6008091E4
:10EB0000C00086FFFCCF8091C00080648093C0006D
:10EB10002F5F3F4F2931310579F70F9422F30F5FB3
:10EB20001F4F0530110519F020E030E0E5CF1092BD
:10EB300008021092090210920A0210920B0210921F
:10EB4000040210920502109206021092070210921F
:10EB500000021092010210920202109203028FEE44
:10EB600090EE60E00F943BF300E219E085E191EE56
:10EB700060E00F9404F38091C00087FFFCCF909178
:10EB8000C600903608F09F759032B0F09093C600A2
:10EB90008091C00086FFFCCF8091C000806480938C
:10EBA000C0000093C6008091C00086FFFCCF80911A
:10EBB000C00080648093C000983409F4F9C099348F
:10EBC00050F4953409F49AC0963409F4CBC09F33BD
:10EBD00009F043C107C0913509F40BC1923509F022
:10EBE0003CC115C184E992EE62E00F943BF38FEED5
:10EBF00090EE60E00F943BF380E391EE60E00F94C1
:10EC000004F380ED91EE60E00F943BF380E491EE2D
:10EC100060E00F9404F384EE90EE60E00F943BF319
:10EC200080E591EE60E00F9404F386E090E061E00F
:10EC300070E00F947AF30F9422F380E791EE60E096
:10EC40000F9404F382EE91EE60E00F943BF380E6C4
:10EC500091EE60E00F9404F38CED91EE60E00F9480
:10EC60003BF380E891EE60E00F9404F38EE10F94A3
:10EC700053F388E90F9453F381E00F9453F30F9407
:10EC800022F380E991EE60E00F9404F3E0E0F0E01D
:10EC900010935700E4918E2F0F9453F30F9422F3A7
:10ECA00080EA91EE60E00F9404F3E3E0F0E010936B
:10ECB0005700E4918E2F0F9453F30F9422F380EBBF
:10ECC00091EE60E00F9404F3E2E0F0E0109357005F
:10ECD000E4918E2F0F9453F30F9422F380EC91EE76
:10ECE00060E00F9404F3E1E0F0E010935700E4914A
:10ECF0008E2F0F9453F30F9422F338CF80EA92EEC5
:10ED000062E00F943BF34091000250910102609148
:10ED100002027091030281E020E10F94C7F3809119
:10ED2000000290910102A0910202B0910302805072
:10ED30009F4FAF4FBF4F8093000290930102A0936B
:10ED40000202B093030280509041A040B04008F40A
:10ED50000DCF109200021092010210920202109246
:10ED6000030204CF8EEA92EE62E00F943BF34091EF
:10ED7000040250910502609106027091070280E042
:10ED800020E10F94C7F38091040290910502A091B5
:10ED90000602B091070280509F4FAF4FBF4F809344
:10EDA000040290930502A0930602B0930702DECE00
:10EDB0008BEB92EE62E00F943BF384E992EE60E01D
:10EDC0000F943BF380EA92EE60E00F943BF38EEAFF
:10EDD00092EE60E00F943BF38BEB92EE60E00F94C9
:10EDE0003BF382EC92EE60E00F943BF38CED92EEFD
:10EDF00036C082EC92EE62E00F943BF381E0C05E9D
:10EE0000DE4F8883C052D1402224332498C08CED39
:10EE100092EE62E00F943BF3409108025091090298
:10EE200060910A0270910B0282E020E10F94C7F317
:10EE30008091080290910902A0910A02B0910B0200
:10EE400080509F4FAF4FBF4F8093080290930902AD
:10EE5000A0930A02B0930B0289CE80E291EE60E0AB
:10EE60000F943BF383CE22243324933061F194300A
:10EE700028F4913089F0923008F508C09530B1F14E
:10EE8000953040F1963009F052C04DC02B3109F059
:10EE9000F2CD91E06BE1EFCD213041F0CF5DDE4F5F
:10EEA0009881C152D140291709F0C5C26227CF5DB0
:10EEB000DE4F2883C152D14092E0DDCDB22FA0E0D9
:10EEC000622793E0D8CD822F90E0A82BB92B622740
:10EED00094E0D1CD2E3009F0AEC2622795E0CE5D30
:10EEE000DE4F19821882C252D140C5CDE1E0F0E078
:10EEF000EC0FFD1FCE5DDE4F48815981C252D140DB
:10EF0000E40FF51F20834F5F5F4FCE5DDE4F5983C7
:10EF10004883C252D14062274A175B0709F0ABCD44
:10EF2000DA0196E0A8CD261709F085C203C0973014
:10EF300009F0A1CDC05EDE4F1882C052D140898158
:10EF4000833109F4F3C08431C8F4863009F4C1C0B8
:10EF5000873050F4823009F4E7C0833009F458C098
:10EF6000813009F0BBC13EC0813109F462C08231F9
:10EF700008F0AAC0803109F0B1C1D6C0883109F4C7
:10EF800076C0893150F4853109F4D0C0853108F458
:10EF900041C1863109F0A2C13DC18A3109F45BC08B
:10EFA0008A3108F480C08B3109F44AC08D3109F0F0
:10EFB00095C18D81803311F090E00AC08F81882344
:10EFC00011F49EE105C0813011F091E001C098E993
:10EFD0001A821B828D818C831D829E831F8227E073
:10EFE00030E080C11A8288E08B8381E48C8386E5DF
:10EFF0008D8382E58E8389E48F8383E5888780E52E
:10F0000089878FE58A8782E38B872BE030E06AC1AE
:10F010008A81813941F0823941F0803911F48FE0E1
:10F0200005C080E003C082E001C08AE01A828B83C1
:10F0300048C051E0C05EDE4F5883C052D14074C01A
:10F040008D81882311F48EE12CC0813011F081E094
:10F0500028C088E926C01A82E1E0F0E089E08093C8
:10F06000570084918B831C8224E030E03BC18B816C
:10F07000803589F48C81883039F4E2E0F0E089E071
:10F080008093570084910DC0E0E0F0E089E0809328
:10F090005700849106C0E3E0F0E089E080935700D8
:10F0A00084911A82DFCF8D81836C99E0E1E0F0E0FA
:10F0B000082E90935700E89507B600FCFDCF1A8202
:10F0C0001B8223E030E00EC11A8244245524320111
:10F0D00007C18A8190E0A0E0B0E0B82EAA2499246C
:10F0E00088248B8190E0A0E0B0E0DC01992788279C
:10F0F000882A992AAA2ABB2A8D8190E0A0E0B0E054
:10F10000882A992AAA2ABB2A8C8190E0A0E0B0E044
:10F11000BA2FA92F982F8827882A992AAA2ABB2A8A
:10F12000880C991CAA1CBB1C1A82DAC09A812B81FC
:10F13000833119F0B501A40169C060E0461660ECA6
:10F14000560663E0660660E0760690F483E0F2011E
:10F1500060925B0080935700E89507B600FCFDCFF6
:10F1600040E051E060E070E0440E551E661E771EE0
:10F17000CB5DDE4F9883C552D140CC5DDE4F188207
:10F18000C452D140022F10E0CC5DDE4F68817981FE
:10F19000C452D140062B172BB501A401DE011B96EA
:10F1A00031E08C9111962C9111971296C95DDE4F2A
:10F1B0002883C752D140CA5DDE4F1882C652D14063
:10F1C00090E0CA5DDE4FE881F981C652D1408E2BB6
:10F1D0009F2B0C01FA0160935B0030935700E89578
:10F1E00011244E5F5F4F6F4F7F4F02501040C9F6A2
:10F1F00085E0F401A0925B0080935700E89507B684
:10F2000000FCFDCF81E180935700E8951A824A0106
:10F210005B0166C0FA81C75DDE4FF883C952D140F9
:10F22000C85DDE4F1882C852D1408B81C82EDD24C4
:10F23000C85DDE4F28813981C852D140C22AD32A05
:10F240001A828981BE016D5F7F4F8431B9F49601C6
:10F25000ABBEF40187919691DB018C9311969C9340
:10F260006E5F7F4F82E090E0A0E0B0E0880E991ED4
:10F27000AA1EBB1E2250304059F72AC0A501940196
:10F280000894C108D108760100E010E00894C11C80
:10F29000D11C0894E11CF11C011D111DE80CF91C86
:10F2A0000A1D1B1D21BDBB27A52F942F832F82BDB7
:10F2B0002F5F3F4F4F4F5F4FF89A80B5DB018D9323
:10F2C000BD012E153F054007510761F749015A015D
:10F2D00096012D5F3F4FFB01108204C080EC8A83B2
:10F2E00022E030E08BE18093C6008091C00086FF71
:10F2F000FCCF8091C00080648093C000CF5DDE4F62
:10F30000F881C152D140F093C6008091C00086FFC1
:10F31000FCCF8091C00080648093C000432F309365
:10F32000C6008091C00086FFFCCF8091C000806441
:10F330008093C000922F2093C6008091C00086FF6A
:10F34000FCCF8091C00080648093C0008EE08093E9
:10F35000C6008091C00086FFFCCF8091C000806411
:10F360008093C00065E1CF5DDE4F5881C152D1402E
:10F37000652769276427FE01319610C0908190931C
:10F38000C6008091C00086FFFCCF31968091C000FE
:10F3900080648093C00069272150304021153105D9
:10F3A00069F76093C6008091C00086FFFCCF809112
:10F3B000C00080648093C0008091020190E18927A1
:10F3C00080930201C05EDE4F7881C052D140772326
:10F3D00079F4CF5DDE4F8881C152D1408F5FCF5D20
:10F3E000DE4F8883C152D14090E0A0E0B0E043CB33
:10F3F000809101018F7E80930101809102018F7EB7
:10F400008093020180E090E020ED37E0F901319730
:10F41000F1F7019684369105C9F700008091C0008C
:10F420008D7F8093C00081E180935700E895EE279F
:10F43000FF270994FFCF90E01ECB97FB092E0726EC
:10F440000AD077FD04D02ED006D000201AF4709593
:10F4500061957F4F0895F6F7909581959F4F089598
:10F46000A1E21A2EAA1BBB1BFD010DC0AA1FBB1FC8
:10F47000EE1FFF1FA217B307E407F50720F0A21B3A
:10F48000B30BE40BF50B661F771F881F991F1A94A7
:10F4900069F760957095809590959B01AC01BD01D1
:10F4A000CF010895AA1BBB1B51E107C0AA1FBB1FB8
:10F4B000A617B70710F0A61BB70B881F991F5A9500
:10F4C000A9F780959095BC01CD010895F999FECFDB
:10F4D00092BD81BDF89A992780B50895F894FFCF21
:040000033000E000E9
:00000001FF
